{
  "_format": "hh-sol-artifact-1",
  "contractName": "Token",
  "sourceName": "contracts/Token.sol",
  "abi": [
    {
      "inputs": [],
      "stateMutability": "nonpayable",
      "type": "constructor"
    },
    {
      "inputs": [
        {
          "internalType": "address",
          "name": "account",
          "type": "address"
        }
      ],
      "name": "balanceOf",
      "outputs": [
        {
          "internalType": "uint256",
          "name": "",
          "type": "uint256"
        }
      ],
      "stateMutability": "view",
      "type": "function"
    },
    {
      "inputs": [],
      "name": "name",
      "outputs": [
        {
          "internalType": "string",
          "name": "",
          "type": "string"
        }
      ],
      "stateMutability": "view",
      "type": "function"
    },
    {
      "inputs": [],
      "name": "owner",
      "outputs": [
        {
          "internalType": "address",
          "name": "",
          "type": "address"
        }
      ],
      "stateMutability": "view",
      "type": "function"
    },
    {
      "inputs": [],
      "name": "symbol",
      "outputs": [
        {
          "internalType": "string",
          "name": "",
          "type": "string"
        }
      ],
      "stateMutability": "view",
      "type": "function"
    },
    {
      "inputs": [],
      "name": "totalSupply",
      "outputs": [
        {
          "internalType": "uint256",
          "name": "",
          "type": "uint256"
        }
      ],
      "stateMutability": "view",
      "type": "function"
    },
    {
      "inputs": [
        {
          "internalType": "address",
          "name": "to",
          "type": "address"
        },
        {
          "internalType": "uint256",
          "name": "amount",
          "type": "uint256"
        }
      ],
      "name": "transfer",
      "outputs": [],
      "stateMutability": "nonpayable",
      "type": "function"
    }
  ],
  "bytecode": "0x60c0604052601060808190526f26bc902430b9323430ba102a37b5b2b760811b60a0908152610031916000919061009f565b506040805180820190915260038082526213521560ea1b602090920191825261005c9160019161009f565b50620f424060025534801561007057600080fd5b5060025433600081815260046020526040902091909155600380546001600160a01b0319169091179055610173565b8280546100ab90610138565b90600052602060002090601f0160209004810192826100cd5760008555610113565b82601f106100e657805160ff1916838001178555610113565b82800160010185558215610113579182015b828111156101135782518255916020019190600101906100f8565b5061011f929150610123565b5090565b5b8082111561011f5760008155600101610124565b600181811c9082168061014c57607f821691505b6020821081141561016d57634e487b7160e01b600052602260045260246000fd5b50919050565b6104bc806101826000396000f3fe608060405234801561001057600080fd5b50600436106100625760003560e01c806306fdde031461006757806318160ddd1461008557806370a082311461009c5780638da5cb5b146100c557806395d89b41146100f0578063a9059cbb146100f8575b600080fd5b61006f61010d565b60405161007c9190610399565b60405180910390f35b61008e60025481565b60405190815260200161007c565b61008e6100aa366004610304565b6001600160a01b031660009081526004602052604090205490565b6003546100d8906001600160a01b031681565b6040516001600160a01b03909116815260200161007c565b61006f61019b565b61010b610106366004610325565b6101a8565b005b6000805461011a90610411565b80601f016020809104026020016040519081016040528092919081815260200182805461014690610411565b80156101935780601f1061016857610100808354040283529160200191610193565b820191906000526020600020905b81548152906001019060200180831161017657829003601f168201915b505050505081565b6001805461011a90610411565b336000908152600460205260409020548111156101ff5760405162461bcd60e51b81526020600482015260116024820152704e6f7420656e6f75676820746f6b656e7360781b604482015260640160405180910390fd5b61022360405180606001604052806024815260200161046360249139338484610278565b33600090815260046020526040812080548392906102429084906103fa565b90915550506001600160a01b0382166000908152600460205260408120805483929061026f9084906103e2565b90915550505050565b6102c18484848460405160240161029294939291906103ac565b60408051601f198184030181529190526020810180516001600160e01b0316636eb7943d60e01b1790526102c7565b50505050565b80516a636f6e736f6c652e6c6f67602083016000808483855afa5050505050565b80356001600160a01b03811681146102ff57600080fd5b919050565b600060208284031215610315578081fd5b61031e826102e8565b9392505050565b60008060408385031215610337578081fd5b610340836102e8565b946020939093013593505050565b60008151808452815b8181101561037357602081850181015186830182015201610357565b818111156103845782602083870101525b50601f01601f19169290920160200192915050565b60208152600061031e602083018461034e565b6080815260006103bf608083018761034e565b6001600160a01b0395861660208401529390941660408201526060015292915050565b600082198211156103f5576103f561044c565b500190565b60008282101561040c5761040c61044c565b500390565b600181811c9082168061042557607f821691505b6020821081141561044657634e487b7160e01b600052602260045260246000fd5b50919050565b634e487b7160e01b600052601160045260246000fdfe5472616e7366657272696e672066726f6d20257320746f20257320257320746f6b656e73a26469706673582212206660b832158c8b155f9b00c9e962889dc0dd9b898c549379b4f82cd8b4b3abd764736f6c63430008040033",
  "linkReferences": {},
  "deployedLinkReferences": {}
}